{
  "_format": "hh-sol-artifact-1",
  "contractName": "Lottery",
  "sourceName": "contracts/Lottery.sol",
  "abi": [
    {
      "inputs": [],
      "stateMutability": "nonpayable",
      "type": "constructor"
    },
    {
      "anonymous": false,
      "inputs": [
        {
          "indexed": false,
          "internalType": "uint32",
          "name": "proposalIndex",
          "type": "uint32"
        }
      ],
      "name": "ProposalInitiated",
      "type": "event"
    },
    {
      "inputs": [],
      "name": "PLAY_AMOUNT",
      "outputs": [
        {
          "internalType": "uint256",
          "name": "",
          "type": "uint256"
        }
      ],
      "stateMutability": "view",
      "type": "function"
    },
    {
      "inputs": [
        {
          "internalType": "string",
          "name": "_name",
          "type": "string"
        },
        {
          "internalType": "string",
          "name": "_contents",
          "type": "string"
        }
      ],
      "name": "addProposal",
      "outputs": [],
      "stateMutability": "payable",
      "type": "function"
    },
    {
      "inputs": [],
      "name": "getPlayerNumber",
      "outputs": [
        {
          "internalType": "uint256",
          "name": "",
          "type": "uint256"
        }
      ],
      "stateMutability": "view",
      "type": "function"
    },
    {
      "inputs": [],
      "name": "manager",
      "outputs": [
        {
          "internalType": "address",
          "name": "",
          "type": "address"
        }
      ],
      "stateMutability": "view",
      "type": "function"
    },
    {
      "inputs": [],
      "name": "myERC20",
      "outputs": [
        {
          "internalType": "contract MyERC20",
          "name": "",
          "type": "address"
        }
      ],
      "stateMutability": "view",
      "type": "function"
    },
    {
      "inputs": [
        {
          "internalType": "uint256",
          "name": "",
          "type": "uint256"
        }
      ],
      "name": "players",
      "outputs": [
        {
          "internalType": "address",
          "name": "",
          "type": "address"
        }
      ],
      "stateMutability": "view",
      "type": "function"
    },
    {
      "inputs": [],
      "name": "proIndex",
      "outputs": [
        {
          "internalType": "uint256",
          "name": "",
          "type": "uint256"
        }
      ],
      "stateMutability": "view",
      "type": "function"
    },
    {
      "inputs": [
        {
          "internalType": "uint256",
          "name": "_proid",
          "type": "uint256"
        }
      ],
      "name": "sum",
      "outputs": [],
      "stateMutability": "payable",
      "type": "function"
    },
    {
      "inputs": [],
      "name": "totalAmount",
      "outputs": [
        {
          "internalType": "uint256",
          "name": "",
          "type": "uint256"
        }
      ],
      "stateMutability": "view",
      "type": "function"
    },
    {
      "inputs": [
        {
          "internalType": "uint256",
          "name": "_proid",
          "type": "uint256"
        },
        {
          "internalType": "uint256",
          "name": "_result",
          "type": "uint256"
        }
      ],
      "name": "vote",
      "outputs": [],
      "stateMutability": "payable",
      "type": "function"
    },
    {
      "inputs": [],
      "name": "winner",
      "outputs": [
        {
          "internalType": "address",
          "name": "",
          "type": "address"
        }
      ],
      "stateMutability": "view",
      "type": "function"
    }
  ],
  "bytecode": "0x60806040523480156200001157600080fd5b5060006005819055506040516200002890620000d8565b620000339062000197565b604051809103906000f08015801562000050573d6000803e3d6000fd5b50600460006101000a81548173ffffffffffffffffffffffffffffffffffffffff021916908373ffffffffffffffffffffffffffffffffffffffff16021790555033600160006101000a81548173ffffffffffffffffffffffffffffffffffffffff021916908373ffffffffffffffffffffffffffffffffffffffff160217905550620001ce565b6119c38062000fd883390190565b600082825260208201905092915050565b7f5a4a55546f6b656e000000000000000000000000000000000000000000000000600082015250565b60006200012f600883620000e6565b91506200013c82620000f7565b602082019050919050565b7f5a4a55546f6b656e53796d626f6c000000000000000000000000000000000000600082015250565b60006200017f600e83620000e6565b91506200018c8262000147565b602082019050919050565b60006040820190508181036000830152620001b28162000120565b90508181036020830152620001c78162000170565b9050919050565b610dfa80620001de6000396000f3fe60806040526004361061009c5760003560e01c80635827517711610064578063582751771461015a5780636d3739c414610185578063b384abef146101b0578063dfbf53ae146101cc578063e6978b50146101f7578063f71d96cb146102225761009c565b806313eaac6c146100a1578063188b85b4146100cc5780631a39d8ef146100e857806323d1c95e14610113578063481c6a751461012f575b600080fd5b3480156100ad57600080fd5b506100b661025f565b6040516100c391906108b2565b60405180910390f35b6100e660048036038101906100e1919061090d565b61026c565b005b3480156100f457600080fd5b506100fd6102e1565b60405161010a91906108b2565b60405180910390f35b61012d60048036038101906101289190610a80565b6102e7565b005b34801561013b57600080fd5b50610144610560565b6040516101519190610b39565b60405180910390f35b34801561016657600080fd5b5061016f610586565b60405161017c91906108b2565b60405180910390f35b34801561019157600080fd5b5061019a61058c565b6040516101a79190610bb3565b60405180910390f35b6101ca60048036038101906101c59190610bce565b6105b2565b005b3480156101d857600080fd5b506101e161076a565b6040516101ee9190610b39565b60405180910390f35b34801561020357600080fd5b5061020c610790565b60405161021991906108b2565b60405180910390f35b34801561022e57600080fd5b506102496004803603810190610244919061090d565b610796565b6040516102569190610b39565b60405180910390f35b6000600280549050905090565b6000600660008381526020019081526020016000206002015411156102ac57600160066000838152602001908152602001600020600501819055506102c9565b600060066000838152602001908152602001600020600501819055505b600260006102d791906107d5565b6000808190555050565b60005481565b600460009054906101000a900473ffffffffffffffffffffffffffffffffffffffff1673ffffffffffffffffffffffffffffffffffffffff166323b872dd33306101f46040518463ffffffff1660e01b815260040161034893929190610c0e565b602060405180830381600087803b15801561036257600080fd5b505af1158015610376573d6000803e3d6000fd5b505050506040513d601f19601f8201168201806040525081019061039a9190610c7d565b506002339080600181540180825580915050600190039060005260206000200160009091909190916101000a81548173ffffffffffffffffffffffffffffffffffffffff021916908373ffffffffffffffffffffffffffffffffffffffff16021790555033600160006101000a81548173ffffffffffffffffffffffffffffffffffffffff021916908373ffffffffffffffffffffffffffffffffffffffff16021790555060016000808282546104519190610cd9565b9250508190555060006040518060c0016040528060055481526020013373ffffffffffffffffffffffffffffffffffffffff1681526020016000815260200184815260200183815260200160028152509050806006600060055481526020019081526020016000206000820151816000015560208201518160010160006101000a81548173ffffffffffffffffffffffffffffffffffffffff021916908373ffffffffffffffffffffffffffffffffffffffff1602179055506040820151816002015560608201518160030190805190602001906105309291906107f6565b50608082015181600401908051906020019061054d9291906107f6565b5060a08201518160050155905050505050565b600160009054906101000a900473ffffffffffffffffffffffffffffffffffffffff1681565b60055481565b600460009054906101000a900473ffffffffffffffffffffffffffffffffffffffff1681565b600460009054906101000a900473ffffffffffffffffffffffffffffffffffffffff1673ffffffffffffffffffffffffffffffffffffffff166323b872dd33306101f46040518463ffffffff1660e01b815260040161061393929190610c0e565b602060405180830381600087803b15801561062d57600080fd5b505af1158015610641573d6000803e3d6000fd5b505050506040513d601f19601f820116820180604052508101906106659190610c7d565b506002339080600181540180825580915050600190039060005260206000200160009091909190916101000a81548173ffffffffffffffffffffffffffffffffffffffff021916908373ffffffffffffffffffffffffffffffffffffffff160217905550600181141561071e5760016006600084815260200190815260200160002060020160008282546106f99190610cd9565b9250508190555060016000808282546107129190610cd9565b92505081905550610766565b60016006600084815260200190815260200160002060020160008282546107459190610d2f565b92505081905550600160008082825461075e9190610d2f565b925050819055505b5050565b600360009054906101000a900473ffffffffffffffffffffffffffffffffffffffff1681565b6101f481565b600281815481106107a657600080fd5b906000526020600020016000915054906101000a900473ffffffffffffffffffffffffffffffffffffffff1681565b50805460008255906000526020600020908101906107f3919061087c565b50565b82805461080290610d92565b90600052602060002090601f016020900481019282610824576000855561086b565b82601f1061083d57805160ff191683800117855561086b565b8280016001018555821561086b579182015b8281111561086a57825182559160200191906001019061084f565b5b509050610878919061087c565b5090565b5b8082111561089557600081600090555060010161087d565b5090565b6000819050919050565b6108ac81610899565b82525050565b60006020820190506108c760008301846108a3565b92915050565b6000604051905090565b600080fd5b600080fd5b6108ea81610899565b81146108f557600080fd5b50565b600081359050610907816108e1565b92915050565b600060208284031215610923576109226108d7565b5b6000610931848285016108f8565b91505092915050565b600080fd5b600080fd5b6000601f19601f8301169050919050565b7f4e487b7100000000000000000000000000000000000000000000000000000000600052604160045260246000fd5b61098d82610944565b810181811067ffffffffffffffff821117156109ac576109ab610955565b5b80604052505050565b60006109bf6108cd565b90506109cb8282610984565b919050565b600067ffffffffffffffff8211156109eb576109ea610955565b5b6109f482610944565b9050602081019050919050565b82818337600083830152505050565b6000610a23610a1e846109d0565b6109b5565b905082815260208101848484011115610a3f57610a3e61093f565b5b610a4a848285610a01565b509392505050565b600082601f830112610a6757610a6661093a565b5b8135610a77848260208601610a10565b91505092915050565b60008060408385031215610a9757610a966108d7565b5b600083013567ffffffffffffffff811115610ab557610ab46108dc565b5b610ac185828601610a52565b925050602083013567ffffffffffffffff811115610ae257610ae16108dc565b5b610aee85828601610a52565b9150509250929050565b600073ffffffffffffffffffffffffffffffffffffffff82169050919050565b6000610b2382610af8565b9050919050565b610b3381610b18565b82525050565b6000602082019050610b4e6000830184610b2a565b92915050565b6000819050919050565b6000610b79610b74610b6f84610af8565b610b54565b610af8565b9050919050565b6000610b8b82610b5e565b9050919050565b6000610b9d82610b80565b9050919050565b610bad81610b92565b82525050565b6000602082019050610bc86000830184610ba4565b92915050565b60008060408385031215610be557610be46108d7565b5b6000610bf3858286016108f8565b9250506020610c04858286016108f8565b9150509250929050565b6000606082019050610c236000830186610b2a565b610c306020830185610b2a565b610c3d60408301846108a3565b949350505050565b60008115159050919050565b610c5a81610c45565b8114610c6557600080fd5b50565b600081519050610c7781610c51565b92915050565b600060208284031215610c9357610c926108d7565b5b6000610ca184828501610c68565b91505092915050565b7f4e487b7100000000000000000000000000000000000000000000000000000000600052601160045260246000fd5b6000610ce482610899565b9150610cef83610899565b9250827fffffffffffffffffffffffffffffffffffffffffffffffffffffffffffffffff03821115610d2457610d23610caa565b5b828201905092915050565b6000610d3a82610899565b9150610d4583610899565b925082821015610d5857610d57610caa565b5b828203905092915050565b7f4e487b7100000000000000000000000000000000000000000000000000000000600052602260045260246000fd5b60006002820490506001821680610daa57607f821691505b60208210811415610dbe57610dbd610d63565b5b5091905056fea2646970667358221220e01f2288d230327c8b568c66ab2e5d0acbc9c53e7c431aac7e8895ba859ecd2f64736f6c6343000809003360806040523480156200001157600080fd5b50604051620019c3380380620019c38339818101604052810190620000379190620002c2565b818181600390805190602001906200005192919062000075565b5080600490805190602001906200006a92919062000075565b5050505050620003ac565b828054620000839062000376565b90600052602060002090601f016020900481019282620000a75760008555620000f3565b82601f10620000c257805160ff1916838001178555620000f3565b82800160010185558215620000f3579182015b82811115620000f2578251825591602001919060010190620000d5565b5b50905062000102919062000106565b5090565b5b808211156200012157600081600090555060010162000107565b5090565b6000604051905090565b600080fd5b600080fd5b600080fd5b600080fd5b6000601f19601f8301169050919050565b7f4e487b7100000000000000000000000000000000000000000000000000000000600052604160045260246000fd5b6200018e8262000143565b810181811067ffffffffffffffff82111715620001b057620001af62000154565b5b80604052505050565b6000620001c562000125565b9050620001d3828262000183565b919050565b600067ffffffffffffffff821115620001f657620001f562000154565b5b620002018262000143565b9050602081019050919050565b60005b838110156200022e57808201518184015260208101905062000211565b838111156200023e576000848401525b50505050565b60006200025b6200025584620001d8565b620001b9565b9050828152602081018484840111156200027a57620002796200013e565b5b620002878482856200020e565b509392505050565b600082601f830112620002a757620002a662000139565b5b8151620002b984826020860162000244565b91505092915050565b60008060408385031215620002dc57620002db6200012f565b5b600083015167ffffffffffffffff811115620002fd57620002fc62000134565b5b6200030b858286016200028f565b925050602083015167ffffffffffffffff8111156200032f576200032e62000134565b5b6200033d858286016200028f565b9150509250929050565b7f4e487b7100000000000000000000000000000000000000000000000000000000600052602260045260246000fd5b600060028204905060018216806200038f57607f821691505b60208210811415620003a657620003a562000347565b5b50919050565b61160780620003bc6000396000f3fe608060405234801561001057600080fd5b50600436106100cf5760003560e01c80633884d6351161008c57806395d89b411161006657806395d89b4114610202578063a457c2d714610220578063a9059cbb14610250578063dd62ed3e14610280576100cf565b80633884d6351461019857806339509351146101a257806370a08231146101d2576100cf565b806306fdde03146100d4578063095ea7b3146100f257806318160ddd1461012257806323b872dd14610140578063306e5fdb14610170578063313ce5671461017a575b600080fd5b6100dc6102b0565b6040516100e99190610dc3565b60405180910390f35b61010c60048036038101906101079190610e7e565b610342565b6040516101199190610ed9565b60405180910390f35b61012a610365565b6040516101379190610f03565b60405180910390f35b61015a60048036038101906101559190610f1e565b61036f565b6040516101679190610ed9565b60405180910390f35b61017861039e565b005b6101826103ac565b60405161018f9190610f8d565b60405180910390f35b6101a06103b5565b005b6101bc60048036038101906101b79190610e7e565b6104ae565b6040516101c99190610ed9565b60405180910390f35b6101ec60048036038101906101e79190610fa8565b6104e5565b6040516101f99190610f03565b60405180910390f35b61020a61052d565b6040516102179190610dc3565b60405180910390f35b61023a60048036038101906102359190610e7e565b6105bf565b6040516102479190610ed9565b60405180910390f35b61026a60048036038101906102659190610e7e565b610636565b6040516102779190610ed9565b60405180910390f35b61029a60048036038101906102959190610fd5565b610659565b6040516102a79190610f03565b60405180910390f35b6060600380546102bf90611044565b80601f01602080910402602001604051908101604052809291908181526020018280546102eb90611044565b80156103385780601f1061030d57610100808354040283529160200191610338565b820191906000526020600020905b81548152906001019060200180831161031b57829003601f168201915b5050505050905090565b60008061034d6106e0565b905061035a8185856106e8565b600191505092915050565b6000600254905090565b60008061037a6106e0565b90506103878582856108b3565b61039285858561093f565b60019150509392505050565b6103aa33612710610bc0565b565b60006012905090565b60001515600560003373ffffffffffffffffffffffffffffffffffffffff1673ffffffffffffffffffffffffffffffffffffffff16815260200190815260200160002060009054906101000a900460ff16151514610448576040517f08c379a000000000000000000000000000000000000000000000000000000000815260040161043f906110e8565b60405180910390fd5b61045433612710610bc0565b6001600560003373ffffffffffffffffffffffffffffffffffffffff1673ffffffffffffffffffffffffffffffffffffffff16815260200190815260200160002060006101000a81548160ff021916908315150217905550565b6000806104b96106e0565b90506104da8185856104cb8589610659565b6104d59190611137565b6106e8565b600191505092915050565b60008060008373ffffffffffffffffffffffffffffffffffffffff1673ffffffffffffffffffffffffffffffffffffffff168152602001908152602001600020549050919050565b60606004805461053c90611044565b80601f016020809104026020016040519081016040528092919081815260200182805461056890611044565b80156105b55780601f1061058a576101008083540402835291602001916105b5565b820191906000526020600020905b81548152906001019060200180831161059857829003601f168201915b5050505050905090565b6000806105ca6106e0565b905060006105d88286610659565b90508381101561061d576040517f08c379a0000000000000000000000000000000000000000000000000000000008152600401610614906111ff565b60405180910390fd5b61062a82868684036106e8565b60019250505092915050565b6000806106416106e0565b905061064e81858561093f565b600191505092915050565b6000600160008473ffffffffffffffffffffffffffffffffffffffff1673ffffffffffffffffffffffffffffffffffffffff16815260200190815260200160002060008373ffffffffffffffffffffffffffffffffffffffff1673ffffffffffffffffffffffffffffffffffffffff16815260200190815260200160002054905092915050565b600033905090565b600073ffffffffffffffffffffffffffffffffffffffff168373ffffffffffffffffffffffffffffffffffffffff161415610758576040517f08c379a000000000000000000000000000000000000000000000000000000000815260040161074f90611291565b60405180910390fd5b600073ffffffffffffffffffffffffffffffffffffffff168273ffffffffffffffffffffffffffffffffffffffff1614156107c8576040517f08c379a00000000000000000000000000000000000000000000000000000000081526004016107bf90611323565b60405180910390fd5b80600160008573ffffffffffffffffffffffffffffffffffffffff1673ffffffffffffffffffffffffffffffffffffffff16815260200190815260200160002060008473ffffffffffffffffffffffffffffffffffffffff1673ffffffffffffffffffffffffffffffffffffffff168152602001908152602001600020819055508173ffffffffffffffffffffffffffffffffffffffff168373ffffffffffffffffffffffffffffffffffffffff167f8c5be1e5ebec7d5bd14f71427d1e84f3dd0314c0f7b2291e5b200ac8c7c3b925836040516108a69190610f03565b60405180910390a3505050565b60006108bf8484610659565b90507fffffffffffffffffffffffffffffffffffffffffffffffffffffffffffffffff8114610939578181101561092b576040517f08c379a00000000000000000000000000000000000000000000000000000000081526004016109229061138f565b60405180910390fd5b61093884848484036106e8565b5b50505050565b600073ffffffffffffffffffffffffffffffffffffffff168373ffffffffffffffffffffffffffffffffffffffff1614156109af576040517f08c379a00000000000000000000000000000000000000000000000000000000081526004016109a690611421565b60405180910390fd5b600073ffffffffffffffffffffffffffffffffffffffff168273ffffffffffffffffffffffffffffffffffffffff161415610a1f576040517f08c379a0000000000000000000000000000000000000000000000000000000008152600401610a16906114b3565b60405180910390fd5b610a2a838383610d20565b60008060008573ffffffffffffffffffffffffffffffffffffffff1673ffffffffffffffffffffffffffffffffffffffff16815260200190815260200160002054905081811015610ab0576040517f08c379a0000000000000000000000000000000000000000000000000000000008152600401610aa790611545565b60405180910390fd5b8181036000808673ffffffffffffffffffffffffffffffffffffffff1673ffffffffffffffffffffffffffffffffffffffff16815260200190815260200160002081905550816000808573ffffffffffffffffffffffffffffffffffffffff1673ffffffffffffffffffffffffffffffffffffffff1681526020019081526020016000206000828254610b439190611137565b925050819055508273ffffffffffffffffffffffffffffffffffffffff168473ffffffffffffffffffffffffffffffffffffffff167fddf252ad1be2c89b69c2b068fc378daa952ba7f163c4a11628f55a4df523b3ef84604051610ba79190610f03565b60405180910390a3610bba848484610d25565b50505050565b600073ffffffffffffffffffffffffffffffffffffffff168273ffffffffffffffffffffffffffffffffffffffff161415610c30576040517f08c379a0000000000000000000000000000000000000000000000000000000008152600401610c27906115b1565b60405180910390fd5b610c3c60008383610d20565b8060026000828254610c4e9190611137565b92505081905550806000808473ffffffffffffffffffffffffffffffffffffffff1673ffffffffffffffffffffffffffffffffffffffff1681526020019081526020016000206000828254610ca39190611137565b925050819055508173ffffffffffffffffffffffffffffffffffffffff16600073ffffffffffffffffffffffffffffffffffffffff167fddf252ad1be2c89b69c2b068fc378daa952ba7f163c4a11628f55a4df523b3ef83604051610d089190610f03565b60405180910390a3610d1c60008383610d25565b5050565b505050565b505050565b600081519050919050565b600082825260208201905092915050565b60005b83811015610d64578082015181840152602081019050610d49565b83811115610d73576000848401525b50505050565b6000601f19601f8301169050919050565b6000610d9582610d2a565b610d9f8185610d35565b9350610daf818560208601610d46565b610db881610d79565b840191505092915050565b60006020820190508181036000830152610ddd8184610d8a565b905092915050565b600080fd5b600073ffffffffffffffffffffffffffffffffffffffff82169050919050565b6000610e1582610dea565b9050919050565b610e2581610e0a565b8114610e3057600080fd5b50565b600081359050610e4281610e1c565b92915050565b6000819050919050565b610e5b81610e48565b8114610e6657600080fd5b50565b600081359050610e7881610e52565b92915050565b60008060408385031215610e9557610e94610de5565b5b6000610ea385828601610e33565b9250506020610eb485828601610e69565b9150509250929050565b60008115159050919050565b610ed381610ebe565b82525050565b6000602082019050610eee6000830184610eca565b92915050565b610efd81610e48565b82525050565b6000602082019050610f186000830184610ef4565b92915050565b600080600060608486031215610f3757610f36610de5565b5b6000610f4586828701610e33565b9350506020610f5686828701610e33565b9250506040610f6786828701610e69565b9150509250925092565b600060ff82169050919050565b610f8781610f71565b82525050565b6000602082019050610fa26000830184610f7e565b92915050565b600060208284031215610fbe57610fbd610de5565b5b6000610fcc84828501610e33565b91505092915050565b60008060408385031215610fec57610feb610de5565b5b6000610ffa85828601610e33565b925050602061100b85828601610e33565b9150509250929050565b7f4e487b7100000000000000000000000000000000000000000000000000000000600052602260045260246000fd5b6000600282049050600182168061105c57607f821691505b602082108114156110705761106f611015565b5b50919050565b7f5468697320757365722068617320636c61696d65642061697264726f7020616c60008201527f7265616479000000000000000000000000000000000000000000000000000000602082015250565b60006110d2602583610d35565b91506110dd82611076565b604082019050919050565b60006020820190508181036000830152611101816110c5565b9050919050565b7f4e487b7100000000000000000000000000000000000000000000000000000000600052601160045260246000fd5b600061114282610e48565b915061114d83610e48565b9250827fffffffffffffffffffffffffffffffffffffffffffffffffffffffffffffffff0382111561118257611181611108565b5b828201905092915050565b7f45524332303a2064656372656173656420616c6c6f77616e63652062656c6f7760008201527f207a65726f000000000000000000000000000000000000000000000000000000602082015250565b60006111e9602583610d35565b91506111f48261118d565b604082019050919050565b60006020820190508181036000830152611218816111dc565b9050919050565b7f45524332303a20617070726f76652066726f6d20746865207a65726f2061646460008201527f7265737300000000000000000000000000000000000000000000000000000000602082015250565b600061127b602483610d35565b91506112868261121f565b604082019050919050565b600060208201905081810360008301526112aa8161126e565b9050919050565b7f45524332303a20617070726f766520746f20746865207a65726f20616464726560008201527f7373000000000000000000000000000000000000000000000000000000000000602082015250565b600061130d602283610d35565b9150611318826112b1565b604082019050919050565b6000602082019050818103600083015261133c81611300565b9050919050565b7f45524332303a20696e73756666696369656e7420616c6c6f77616e6365000000600082015250565b6000611379601d83610d35565b915061138482611343565b602082019050919050565b600060208201905081810360008301526113a88161136c565b9050919050565b7f45524332303a207472616e736665722066726f6d20746865207a65726f20616460008201527f6472657373000000000000000000000000000000000000000000000000000000602082015250565b600061140b602583610d35565b9150611416826113af565b604082019050919050565b6000602082019050818103600083015261143a816113fe565b9050919050565b7f45524332303a207472616e7366657220746f20746865207a65726f206164647260008201527f6573730000000000000000000000000000000000000000000000000000000000602082015250565b600061149d602383610d35565b91506114a882611441565b604082019050919050565b600060208201905081810360008301526114cc81611490565b9050919050565b7f45524332303a207472616e7366657220616d6f756e742065786365656473206260008201527f616c616e63650000000000000000000000000000000000000000000000000000602082015250565b600061152f602683610d35565b915061153a826114d3565b604082019050919050565b6000602082019050818103600083015261155e81611522565b9050919050565b7f45524332303a206d696e7420746f20746865207a65726f206164647265737300600082015250565b600061159b601f83610d35565b91506115a682611565565b602082019050919050565b600060208201905081810360008301526115ca8161158e565b905091905056fea26469706673582212204c0936b916cf966a7258ea16e029ca43b190d3123d6dca7c6d059de414cfa53864736f6c63430008090033",
  "linkReferences": {},
  "deployedLinkReferences": {}
}